:020000040800F2
:10000000387F012015030008AB4F0008F9420008B3
:10001000A94F0008510C00086F780008000000008C
:100020000000000000000000000000005502000871
:10003000C30D000800000000B10200084D51000887
:100040002F0300082F0300082F0300082F030008C8
:100050002F0300082F0300082F0300082F030008B8
:100060002F0300082F0300082F030008710C00085D
:100070007D0C0008890C0008950C0008A10C0008F4
:10008000AD0C0008B90C00082F0300082F0300086E
:100090002F0300082F0300082F0300082F03000878
:1000A0002F0300082F0300082F0300082F03000868
:1000B0001D52000859520008955200082F030008ED
:1000C0002F0300082F0300082F0300082F03000848
:1000D0002F0300082F030008C15A0008CD5A00085A
:1000E000C50D00082F0300082F030008A9530008BE
:1000F00001540008F55300082F030008C50C000840
:100100002F0300082F030008D15200082F03000816
:100110002F030008C95700082F0300080D530008DB
:100120002F0300082F0300082F0300082F030008E7
:100130002F0300082F0300082F0300082F030008D7
:100140002F0300082F0300082F0300082F030008C7
:100150002F0300082F0300082F030008D95A0008B6
:100160002F0300082F0300082F0300082F030008A7
:100170002F030008B14F00082F0300080000000003
:100180002F0300082F03000800F002F800F052F8D7
:100190000AA090E8000C82448344AAF10107DA45E2
:1001A00001D100F047F8AFF2090EBAE80F0013F0E2
:1001B000010F18BFFB1A43F00103184740CA0000A3
:1001C00060CA00000A4410F8014B14F00F0508BF84
:1001D00010F8015B240908BF10F8014B6D1E05D013
:1001E00010F8013B6D1E01F8013BF9D1641E03D0EC
:1001F000641E01F8015BFBD19142E4D3704700001B
:100200000023002400250026103A28BF78C1FBD81F
:10021000520728BF30C148BF0B60704700207047AD
:100220001FB50CF05AFA9DE8030000F015FB1FBD46
:1002300010B510BD00F099FB1146FFF7F1FF08F073
:10024000BFFD00F0B7FB03B4FFF7F2FF03BC07F0FC
:10025000D2FD00002C4B19680868B0E8F04F80F31D
:100260000988BFF36F8F4FF0000080F3118870474B
:100270000000000008480068006880F308884FF01C
:10028000000080F3148862B661B6BFF34F8FBFF3EE
:100290006F8F00DF00BF00BF08ED00E0DFF80C004B
:1002A000016841F470010160704700BF88ED00E013
:1002B000EFF30980BFF36F8F134B1A681EF0100F16
:1002C00008BF20ED108A20E9F04F106009B44FF00C
:1002D000500080F31188BFF34F8FBFF36F8F0AF088
:1002E0007FFD4FF0000080F3118809BC1968086891
:1002F000B0E8F04F1EF0100F08BFB0EC108A80F38A
:100300000988BFF36F8F704780000020EFF30580EE
:10031000704700000948804709480047FEE7FEE7AC
:10032000FEE7FEE7FEE7FEE7FEE7FEE7FEE7FEE7A5
:1003300004480549054A064B704700000152000871
:100340008901000838770120387F012038790120A1
:1003500038790120704770B5064600F061FA0568EB
:1003600006F10B0020F00704B4429CBF002070BDD2
:100370002B466A68BAB11068A04210D304F1080194
:1003800088423CBF5068586007D3516810194160DB
:100390001168091B016058601460101D70BD134680
:1003A0005268002AE7D12146284600F041FA002889
:1003B000DED170BD70B50446051F00F031FA00684B
:1003C000002C14BF446870BD002C18BFAC423CBF69
:1003D00020466468F8D301680A18AA4218BF45602D
:1003E00003D12A6805461144016028684119A142D9
:1003F0001CBF6C6070BD616869602168084428603A
:1004000070BD53EA020C00F069802DE9F04B4FF00B
:100410000006002B1FBFB3FA83F503FA05F424FA94
:1004200005F65E4012BF1643B2FA82F502FA05F4F1
:10043000C5F120051EBF22FA05FC44EA0C04203554
:1004400056EA044C4FEA144418BF641C4FF00008ED
:100450004FF00009904271EB030C39D3002919BF0A
:10046000B1FA81F701FA07F6B0FA80F700FA07F659
:10047000C7F120071EBF20FA07FC46EA0C0620370A
:10048000B6FBF4FCA7EB0507103F07F01F0BCBF101
:1004900020060CFA0BFB2CFA06F644BFB3460026E6
:1004A000202FA4BF5E464FF0000B5BEA060C08BF8E
:1004B0004FF0010B19EB0B09ABFB027C48EB060874
:1004C000C01B06FB02CC0BFB03CC71EB0C01C1E79C
:1004D0000B46024641464846BDE8F08B13B54FF047
:1004E00000004FF00001AFF30080BDE81C407047F2
:1004F0000FB4044910B503AA029800F0E3F910BC48
:100500005DF814FB600100202DE9F05F8946044688
:100510004FF0000ADFF824B1FB44C0F820A02046C9
:10052000E168884700287DD0252806D0D4E901213C
:100530009047206A401C2062F1E700255F46204674
:10054000E16888472028064607DB312E05D2B81916
:1005500010F8200C08B10543F1E7A80701D525F0F4
:100560000405C4F81CA00027C4F818A02A2E09D03E
:10057000304607F039FC38B304EB8708303EC8F842
:10058000186019E059F8041B204604EB87029161BA
:10059000E1688847012F064618D1E069002820DA73
:1005A00025F020051DE0D8F8180000EB800006EBD0
:1005B00040003038C8F818002046E16888470646F1
:1005C00007F012FC0028EED1012F0AD02E2E08D100
:1005D0002046E16888477F1C0646022F45F020052B
:1005E000C4DBA069002803DA404245F00105A061A0
:1005F000E80701D025F01005A6B1A6F141001928A1
:1006000002D8203645F400654A463146204625602A
:100610004D46FFF703FE60B1012807D0ED1D25F020
:10062000070000E007E000F1080978E705F1040998
:1006300075E730467AE7206ABDE8F09F6CC4000099
:1006400040EA0103024630B59B0710D14FF0013458
:1006500000E008C208C91D1B9D4315EAC41FF8D05D
:1006600013F0FF0102F8011B0DD01B0AF8E711F887
:10067000013B002B02F8013B05D011F8013B002B98
:1006800002F8013BF3D130BD032A40F2308010F074
:10069000030C00F0158011F8013BBCF1020F62441D
:1006A00098BF11F801CB00F8013B38BF11F8013BAE
:1006B000A2F1040298BF00F801CB38BF00F8013B5B
:1006C00011F0030300F02580083AC0F0088051F8CB
:1006D000043B083A51F804CBA0E80810F5E7121DD6
:1006E0005CBF51F8043B40F8043BAFF30080D207F5
:1006F00024BF11F8013B11F801CB48BF11F8012BC1
:1007000024BF00F8013B00F801CB48BF00F8012BE3
:10071000704710B5203AC0F00B80B1E81850203A6D
:10072000A0E81850B1E81850A0E81850BFF4F5AF91
:100730005FEA027C24BFB1E81850A0E8185044BF1B
:1007400018C918C0BDE810405FEA827C24BF51F888
:10075000043B40F8043B08BF7047D20728BF31F87C
:10076000023B48BF11F8012B28BF20F8023B48BFCD
:1007700000F8012B704702F0FF0343EA032242EA2C
:10078000024200F002B84FF000020429C0F01280CB
:1007900010F0030C00F01B80CCF1040CBCF1020F34
:1007A00018BF00F8012BA8BF20F8022BA1EB0C0109
:1007B00000F00DB85FEAC17C24BF00F8012B00F8FF
:1007C000012B48BF00F8012B70474FF0000200B525
:1007D000134694469646203922BFA0E80C50A0E864
:1007E0000C50B1F12001BFF4F7AF090728BFA0E812
:1007F0000C5048BF0CC05DF804EB890028BF40F8DE
:10080000042B08BF704748BF20F8022B11F0804F1F
:1008100018BF00F8012B704770477047704770474A
:1008200000487047E0760120704770477047704776
:1008300038B504460A4600206946AFF30080002818
:1008400008BF38BD02460099204600F051F801204B
:1008500038BD012000F082B8F8B5AFF3008005463E
:1008600000200C46102000BF0646A819A0420DD952
:10087000324669460020AFF30080070008BF00F051
:100880006DF80098A04218BF0546C419FFF7C8FFCD
:1008900005600746F01D20F007004619284600F0C5
:1008A0000AF8B44208BFF8BDA21B31463868BDE85B
:1008B000F84000F01DB800210160C0E90110704748
:1008C00010207047074B70B50D467B4400F02FF8A1
:1008D0000446284600F03EF810B14FF0FF3070BDDE
:1008E000204670BDBB7E000000487047D8760120CE
:1008F000034640688C46002818BF88423CBF034628
:100900004068F8D318681844884207D00CF10300F7
:1009100020F00700001D411A521A0146081D0A6006
:10092000FFF748BD01694A1C02610878704700B5AD
:100930008FB0CDE901310021059105497944CDE918
:10094000031011466846FFF7DFFD0FB000BD000041
:10095000E5FFFFFF007B00F08000704710B500F05E
:1009600037F8BDE8104000F02EB87546FFF7BCFF21
:10097000AE4605006946534620F00700854618B08C
:1009800020B5FFF7D5FCBDE820404FF000064FF042
:1009900000074FF000084FF0000B21F00701AC46B4
:1009A000ACE8C009ACE8C009ACE8C009ACE8C009D3
:1009B0008D46704710B50446AFF300802046BDE871
:1009C0001040FFF740BC002801D007F014BA704770
:1009D00010B5012805D0002103A000F021F8012066
:1009E00010BD09A1F8E7000053494752544D454D49
:1009F0003A204F7574206F662068656170206D65C0
:100A00006D6F7279000000003A2048656170206DBA
:100A1000656D6F727920636F7272757074656400B2
:100A200070B505460C460A2000E06D1C07F0E4F99D
:100A300035B128780028F8D102E0641C07F0DCF911
:100A400014B120780028F8D1BDE870400A2007F0E2
:100A5000D3B910B50146806B026C12F0500F05D06F
:100A6000026CD20626D500F073FB10BD016C41F478
:100A70000071016401688A6812F0405F17D1027E3C
:100A8000AAB9CA6A12F4700F02D08A6852050ED44D
:100A90004A6822F020024A60016C21F480710164EE
:100AA000016CC90403D4016C41F00101016400F040
:100AB0004DFB10BD806BC26CBDE81040084610476E
:100AC00010B5806B40210164416C41F00401416428
:100AD00000F03EFB10BD10B5806B00F038FB10BD80
:100AE000464910B54A6822F440324A604A68436871
:100AF0001A434A6001684A6822F480724A600168B9
:100B00004A68036942EA03224A6001684A6822F09F
:100B100040724A6001684A6883681A434A60016803
:100B20008A6822F400628A6001688A68C3681A438E
:100B30008A60816A6FF07062D14201688A6822F02F
:100B400070628A6001688A680CD0836A1A438A607E
:100B500001688A6822F040528A6001688A68C36A24
:100B60001A4301E022F040528A6001688A6822F04C
:100B700002028A6001688A68037E42EA43028A6050
:100B800090F82010002901684A680FD042F40062F2
:100B90004A6001684A6822F460424A6001684A6813
:100BA000174C436A04EB43331A4301E022F400621A
:100BB0004A600168CA6A22F47002CA620168CA6A9D
:100BC000838B104C04EB03531A43CA6201688A6892
:100BD00022F400728A6001688A6890F8303042EA34
:100BE00043228A6001688A6822F480628A60016810
:100BF0008A68406942EA8020886010BD0023014075
:100C000000E0FFFF0000F0FF6FF03B02904209DAC6
:100C1000914201DA442070473C2901DD42207047AF
:100C2000432070473C2809DD914201DA4620704795
:100C30003C2901DD4820704747207047914201DA86
:100C4000452070473C2901DD41207047492070470D
:100C5000FEE710B5C378002202219B1C03E0445C30
:100C6000491C224492B28B42F9DCD043C0B210BD81
:100C7000014800F08FBC00002C350020014800F036
:100C800089BC00004C360020014800F083BC000005
:100C90008C290020014800F07DBC0000AC3600200B
:100CA000014800F077BC0000CC2A0020014800F089
:100CB00071BC00008C350020014800F06BBC0000C6
:100CC000EC350020014800F065BC0000EC29002054
:100CD00001681823CAB2103AB2FBF3F2054B6FF366
:100CE0000901032A9B5CC36500D9091D816508467B
:100CF0007047000058C9000810B5014600208B69F4
:100D00008A6A4FF0C07453B1B3F5005F15D072B169
:100D1000012A0CD0022A0AD0032A09D104E01AB110
:100D2000012A06D0022A03D1C96AC90100D50120CF
:100D300010BDC96AA142FAD010BD002AF7D0012A1D
:100D4000F2D0022AF3D0032AF3D010BD30B50468E4
:100D5000256825F480252560046863608368402B3E
:100D6000036803D099600068C26030BD9A60006873
:100D7000C16030BD10B500210A4600EB8103491C5B
:100D8000C3F884241029F8D300214FF400734418C9
:100D9000491C84F81C229942F9D302704270012147
:100DA0008170C0F8C424017640238371427680F8B4
:100DB0001C2480F81D1480F81F2480F81E240020B5
:100DC00010BD704705480168C90405D5811401604C
:100DD0000348006808F034BD70470000143C01402F
:100DE0005000002072B6FEE7002229B101291AD076
:100DF00002291BD04FF440720E490B6823F4407354
:100E00000B600B6813430B600A6822F0F8020A605B
:100E10000A68022303EBC00002430A60086840F43A
:100E20008030086070474FF48072E5E74FF400723D
:100E3000E2E70000103C02401348016889050FD525
:100E4000016821F400710160016841F400610160F2
:100E5000016821F400610160016841F400710160E2
:100E6000016849050FD5016821F4806101600168BE
:100E700041F480510160016821F4805101600168F2
:100E800041F4806101607047003C024008490A68F3
:100E900022F440720A600A6842F004020A600A689A
:100EA0004FF4803343EA002002430A607047000099
:100EB000103C0240064A136823F440731360136821
:100EC0001360136843F00103136001707047000062
:100ED000103C0240094910B50C6824F440740C60C1
:100EE0000C6844F440740C600C6844F001040C601D
:100EF0000260BFF36F8F436010BD0000103C0240E2
:100F0000074A136823F440731360136843F4807333
:100F10001360136843F00103136001807047000001
:100F2000103C0240074A136823F4407313601368AF
:100F300043F400731360136843F00103136001600E
:100F400070470000103C024017490868C206174865
:100F500005D5C26942F01002C26110220A600A6817
:100F6000920605D5C26942F00802C26120220A60D9
:100F70000A68520605D5C26942F00402C2614022E5
:100F80000A600A68120605D5C26942F00202C2610F
:100F900080220A600A68920705D5C26942F02002E1
:100FA000C2610220086070470C3C0240C03700203C
:100FB00070B5114904460020C86100F00BFE0546DB
:100FC0000E4E09E0601C07D024B100F003FE401B68
:100FD000A04201D9032070BD3068C003F2D430684C
:100FE000C00701D001203060306810F0F200F2D06C
:100FF000FFF7AAFF012070BDC03700200C3C024063
:1010000078B50024009490F83C20012A19D00122E0
:1010100080F83C200A6807250368092A13D9DE688E
:101020000A3A02EB42029540AE43DE600A788B68D2
:101030000A3A02EB420293400268D5682B43D36020
:1010400010E0022078BD1E6902EB42029540AE43DB
:101050001E610A788B6802EB4202934002681569B0
:101060002B4313614A681F25072A13D203685E6B5E
:10107000521E02EB82029540AE435E630A8893B231
:101080000A79521E02EB820293400268556B2B4391
:10109000536327E003680D2A12D21E6BD21F02EBA6
:1010A00082029540AE431E630A8893B20A79D21F2A
:1010B00002EB820293400268156B2B43136311E02D
:1010C000DE6A0D3A02EB82029540AE43DE620A8888
:1010D00093B20A790D3A02EB820293400268D56A14
:1010E0002B43D362164B0568144A9D4206D10D6806
:1010F000122D03D1556845F48005556005689D4261
:1011000018D10B68102B01D0112B13D1536843F465
:1011100000035360096810290CD10A490A4A09687A
:10112000B1FBF2F101EB8101490000E0491E0091A1
:101130000029FBD180F83C40002078BD002301400D
:10114000002001407000002040420F0070477047AF
:10115000704770B504004FF0000603D0206C0025E6
:1011600010B107E0012070BD204600F01DF8656455
:1011700084F83C50206CC00610D4206C20F48850B9
:1011800040F0020020642046FFF7AAFC6564206C52
:1011900020F0020040F00100206400E0012684F805
:1011A0003C50304670BD000070B586B00646142134
:1011B0006846FFF70AFB1D493068884234D11C4855
:1011C0000025016841F480710160006800F48070BE
:1011D000059017481438016841F002010160006869
:1011E000694600F002000590012000900320CDE93F
:1011F0000105104800F0FCFB104C0F48C4E9000545
:101200000015A560C4E90350400060618000A06142
:101210004011C4E907052046656200F08BFA08B169
:10122000FFF7E0FDB463A66306B070BD0020014087
:10123000443802400004024010640240D8280020D4
:1012400018B50022009290F83C10012907D0012126
:1012500080F83C1001688B68DB0702D011E00220A7
:1012600018BD8B6843F001038B602E492E4B096833
:10127000B1FBF3F101EB410100E0491E00910029AF
:10128000FBD101688B68DB0742D0036C40F201643C
:10129000A34343F4807303644B685B0505D5036C7B
:1012A00023F4005343F480530364036CDB0404D53C
:1012B000436C23F00603436400E0426480F83C2062
:1012C0001A4A6FF022030B6051680068CA06184979
:1012D00006D0884224D1816811F0405F13D01FE00E
:1012E0008842F8D0134A904203D1D1F80423D206A1
:1012F000F1D0114A904213D1D1F8041301F01F012B
:101300001029E8D30CE0816841F08041816007E05A
:10131000016C41F010010164416C41F00101416434
:10132000002018BD7000002040420F000023014043
:10133000002001400021014000220140F8B50023B7
:101340000446009390F83C00012807D0012084F85F
:101350003C0020688568ED0702D011E00220F8BD4E
:10136000856845F0010585604048414D0068B0FB47
:10137000F5F000EB400000E0401E00900028FBD19B
:1013800020688568ED0503D5856825F4807585603E
:1013900020688568ED075FD0256C40F20166B54393
:1013A00045F4807525644068400505D5206C20F41F
:1013B000005040F480502064206CC00404D5606C60
:1013C00020F00600606400E0636484F83C30A36BA6
:1013D0002948284DD863A36B28481864A36B284874
:1013E000D86423686FF0220018602068436843F0D7
:1013F000806343602068836843F48073836013468E
:1014000020680A46A66B00F14C01304600F0FCF95A
:1014100068681C49C006206806D0884224D18168CB
:1014200011F0405F13D01FE08842F8D0164A904276
:1014300003D1D1F80423D206F1D0144A904213D13B
:10144000D1F8041301F01F011029E8D30CE08168E2
:1014500041F08041816007E0206C40F01000206482
:10146000606C40F0010060640020F8BD7000002056
:1014700040420F0000230140530A0008D70A000829
:10148000C10A000800200140002101400022014063
:1014900010B5040002D0607910B106E0012010BD43
:1014A00000202071204600F005F801206071002026
:1014B00010BD000008B500680649884208D10648FA
:1014C000016841F480510160006800F48050009090
:1014D00008BD000000300240303802402DE9F041E4
:1014E0000446876D00F076FB054694F8350000262B
:1014F000022806D08020606584F834600120BDE8B1
:10150000F0812068016821F01601016020684169BE
:1015100021F080014161206C08B9A06C20B12068E5
:10152000016821F0080101602068016821F00101D3
:1015300001600CE000F04EFB401B052807D920207D
:101540006065032084F8350084F83460D7E72068AC
:101550000068C007EED194F85C103F208840B86066
:10156000012084F8350084F834600020C7E790F843
:101570003510022903D080214165012070470521E3
:1015800080F835100068016821F001010160002039
:10159000704700002DE9F84304464FF00009CDF8EC
:1015A000009063484FF41651A56D0068B0FBF1F749
:1015B0002E6894F85C20082101FA02F030420FD026
:1015C0002068026852070BD5026822F0040202600C
:1015D00094F85C008140A960606D40F00100606596
:1015E00094F85C104FF0010808FA01F0304208D07E
:1015F00021684969090604D5A860606D40F00200C1
:10160000606594F85C1004208840304208D021685E
:101610000968890704D5A860606D40F00400606522
:1016200094F85C1010208840304218D02168096876
:10163000090714D5A86020680168490304D500682B
:10164000000308D5A16C07E00168C90503D401684F
:1016500021F008010160216C09B12046884794F807
:101660005C1020208840304231D021680968C906CA
:101670002DD5A86094F8350005282068016806D0AB
:10168000490347D5006800031DD4616C1CE021F0BC
:10169000160101602068416921F080014161206CE0
:1016A00008B9A06C20B12068016821F00801016030
:1016B00094F85C103F208840A86084F8358084F856
:1016C0003490216D1FE0E16B09B120468847606DC1
:1016D00000282BD0606DC00714D0052084F8350099
:1016E0002068016821F0010101600098401C009011
:1016F000B84203D820680068C007F6D184F8358066
:1017000084F83490E16C002910D001B02046BDE887
:10171000F04308470168C905D5D4016821F01001DC
:10172000016084F8358084F83490CCE7BDE8F88314
:10173000700000202DE9F041044600F04BFA054608
:101740005CB1022084F83500002684F834602068FB
:10175000016821F0010101600DE00120BDE8F08188
:1017600000F038FA401B052805D9202060650320C9
:1017700084F83500F2E720680068C007F0D12168DE
:101780000A6820480240D4E901031843D4E903352C
:101790002B43184363691843A3691843E36918434B
:1017A000236A18431043626A042A03D1D4E90B2345
:1017B0001A431043086020684069656A20F00701F9
:1017C00028460D43012704280CD1A06A0543E06A8E
:1017D00040B12046FFF790FA20B14020606584F8C0
:1017E0003570BAE7206845612046FFF771FA94F832
:1017F0005C203F2191408160666584F8357000204F
:10180000ACE700003F8010F02DE9F0410446866D02
:1018100090F83400002501280DD0012084F8340010
:1018200094F835700020012F07D084F83400022589
:101830002846BDE8F0810220FBE7022784F83570D6
:1018400060652046FFF782FA94F85C103F208840DC
:10185000B0602068016841F016010160206C20B181
:101860002068016841F0080101602068016841F0CA
:1018700001010160DCE7000070B5044600F0AAF940
:101880000546601C02D004480078044400F0A2F928
:10189000401BA042FAD370BD740000202DE9F04730
:1018A000044622480E46017E01290AD001218046C5
:1018B00001764CF250394846FFF77AFB020003D01C
:1018C0002FE00220BDE8F0874FF0FF303060206845
:1018D000174F012801D0A5681CE0207C6168FFF744
:1018E000D5FA4846FFF764FB0246386820F004004A
:1018F000386014E0217C2846FFF776FA4846FFF767
:1019000057FB0200386820F0FA00386001D03560DB
:1019100005E06D1CD4E902100844A842EAD8FFF79C
:101920008BFA002188F818101046CBE7C03700204A
:10193000103C02400348016841F000410160002072
:1019400070470000103C02402DE9F0471B4E054651
:101950001446307E1F468946012808D00120307683
:101960004CF250384046FFF723FB18B114E0022038
:10197000BDE8F0879DB1012D16D0022D19D0224669
:101980003B464846FFF7A6FA4046FFF711FB0C49D5
:101990000A6822F001020A6000213176E8E7E1B22C
:1019A0004846FFF787FAEFE7A1B24846FFF7A8FAE3
:1019B000EAE721464846FFF7B5FAE5E7C0370020D9
:1019C000103C0240074900200A68002A09DA054A4B
:1019D000054B0C3A1360054B13600968002900DAC7
:1019E00001207047103C024023016745AB89EFCDD1
:1019F0002DE9F84FDFF89C910022A9F1040B032791
:101A00004FF00F0C09F1040AABF1040E01250B682D
:101A100095402B40AB426ED10C7904F00304012CAD
:101A200001D0022C15D18668540007FA04F826EA82
:101A30000806D1F80C8008FA04F848EA0608C0F84D
:101A400008804468AC430D79C5F3001595402543E3
:101A500045600C79E443A40708D0C568540007FA30
:101A600004F6B5438E68A6402E43C6600C7904F098
:101A70000304022C11D1D40800EB8406356A540704
:101A8000E40E0CFA04F825EA0805D1F8108008FAEB
:101A900004F848EA0508C6F820800568540007FAEB
:101AA00004F6B5430E7906F00306A6402E43066001
:101AB0004C6814F4403F66D0374C256845F48045A7
:101AC0002560246822F0030504F480440094334C1C
:101AD00005EB0408D8F808589407260F0CFA06F40A
:101AE000A5432F4CA04201D1002424E02D4CA0425C
:101AF00002D101241FE046E02B4CA04201D1022478
:101B000019E02A4CA04201D1032414E0284CA04241
:101B100001D104240FE0274CA04201D105240AE0A2
:101B2000254CA04201D1062405E0244CA04201D15D
:101B3000072400E00824B4402C43C8F80848D9F82A
:101B400000404D464E689C43F60200D51C432C6075
:101B5000DAF8004055464E689C43B60200D51C4357
:101B60002C60DBF800405D464E689C43B60300D510
:101B70001C432C60DEF8004075464E689C43F6031B
:101B800000D51C432C60521C102AFFF43FAFBDE867
:101B9000F88F0000083C014044380240003001400A
:101BA000000002400004024000080240000C024015
:101BB000001002400014024000180240001C0240C5
:101BC0000069084000D0012070470AB18161704768
:101BD0000904FBE70148806870470000740000209A
:101BE000D0F8000304F00EBFD0F8000304F020BFCB
:101BF000006805F061BB006805F062BB01EB4102C3
:101C000002EBC10100EB810090F86000704701EB2E
:101C1000410202EBC10100EB8100006D704710B57D
:101C2000044690F8F802012809D0012084F8F8024F
:101C3000206805F050FB002084F8F80210BD022057
:101C400010BD2DE9FE430546DDE90B7095F8F8421D
:101C5000DDF828C0012C1ED001EB410404EBC104C7
:101C60004FF0010905EB840485F8F892002684F80A
:101C70003D6084F83830A4F8400084F8391084F8C6
:101C80003F7002F07F0884F83A805FEA026805D569
:101C900084F83B9004E00220BDE8FE8384F83B60BA
:101CA00084F83CC0CDF800C0CDE90170286805F08B
:101CB00074FB85F8F862EFE7D0F8000304F032BF58
:101CC0002DE9F0030D4601EB4501DDE90864DDE98E
:101CD000067901EBC50100EB81014FF0020C81F8A0
:101CE0003B2081F83F3057B181F842C000246BB1EE
:101CF000012B2DD0022B11D0032B15D10EE04FF06C
:101D0000030881F8428081F83D40EFE7012F0BD1B5
:101D100052B9D6B9012281F8552003E0AAB191F851
:101D20005420AAB181F842C0C1F84490CE6481F831
:101D300060400C6581F8395081F86140027C006890
:101D4000BDE8F003383105F0AFBB91F85520E8E766
:101D500081F84240E8E72DE9F04104460068064674
:101D600005F0B5FA012875D1206805F0BEFC002801
:101D700070D0206805F0B9FC800203D521684FF4CB
:101D800000104861206805F0B0FCC00203D521684E
:101D90004FF480104861206805F0A7FC400103D58E
:101DA00021684FF080604861206805F09EFC800744
:101DB00002D5216802204861206805F096FC800069
:101DC00015D521684FF000504861D6F84004C0078F
:101DD0000DD11021304605F04FFA304605F02EFAAD
:101DE0000121206805F066FC2046FFF7FDFE206813
:101DF00005F07BFCC00102D5204602F0EDF9206819
:101E000005F073FC000705D5204600F0C2F82168F4
:101E100008204861206805F068FCC043C0060CD467
:101E20002068816921F010018161204602F01EFACC
:101E30002068816941F010018161206805F055FC3E
:101E4000800123D5206805F02BFB074600254FF0C5
:101E5000010814E01AE005F00F0108FA01F0384219
:101E60000CD006EB4510D0F80005E9B2000420467E
:101E700002D501F0A9FF01E002F0A0F86D1CA068F6
:101E8000A842E8D821684FF000704861BDE8F081B1
:101E900070B58AB0040005D094F8F90225680026D0
:101EA00018B107E001200AB070BD84F8F86220463E
:101EB00000F028F8032084F8F902E86BC00500D48C
:101EC0002661206805F086F904F1100128220D46EC
:101ED0006846FEF71EFC94E80F0005F021F9012189
:101EE000206805F03EFC282229466846FEF711FCD2
:101EF00094E80F0005F076FB012084F8F902002039
:101F0000D1E7000010B586B0044614216846FEF7FC
:101F10005CFC17492068884227D1164C00202168B4
:101F200041F002012160216801F0020105914FF4A6
:101F3000404100910221CDE90110032003900C20C3
:101F4000049069460C48FFF753FD206840F00050AC
:101F500020602068002200F00050059005214D20EF
:101F600000F00EFA4D2000F0FDF906B010BD0000A3
:101F7000000004403038024000040240D0F8000362
:101F800004F0EDBDD0F8000304F0EDBD006805F0ED
:101F9000CFBBD0F8000304F08BBD10B5044690F819
:101FA000F80201280DD0012084F8F80201212068F0
:101FB00005F028F9206805F03BF9002084F8F802C4
:101FC00010BD022010BD10B5044690F8F80201289B
:101FD00009D0012084F8F802206805F0F0FB002009
:101FE00084F8F80210BD022010BD000070B5040096
:101FF00025D094F83D00002520B984F83C502046B7
:1020000000F0B8F8242084F83D002068016821F031
:10201000010101602068016841F40041016020680D
:10202000016821F40041016000F09EFA4D4B6168A7
:10203000994201D84C4900E04C49884201D2012024
:1020400070BD4B492268B0FBF1F1566826F03F069F
:102050000E43566062689A4206D94FF49672514315
:102060004FF47A72B1FBF2F12268491C166A26F02D
:102070003F06314311626168994210D84900401E01
:10208000B0FBF1F2521CC2F30B02042A01D204206D
:1020900022E0B0FBF1F0401CC0F30B001CE0A26892
:1020A000F2B301EBC10303EB0116431EB3FBF6F3DE
:1020B0005B1C43F480431B0549D092B301EBC10282
:1020C00002EB0111401EB0FBF1F0401CC0F30B000D
:1020D00040F4804040F400402168CA694CF6FF7328
:1020E0009A431043C861D4E907100143206802688D
:1020F00022F0C00211430160D4E9030101432068CA
:10210000826848F2FF339A4311438160D4E9051095
:1021100001432068C26822F0FF021143C16001E060
:102120000EE016E02068016841F0010101602564BD
:10213000202084F83D00256384F83E50002070BDC7
:1021400001EB4106431EB3FBF6F35B1CB3E7012032
:10215000C2E701EB4101401EB0FBF1F0401CC0F3AF
:102160000B00B7E7A086010080841E0000093D0037
:1021700040420F002DE9F04387B004461421684621
:10218000FEF723FB2D492068884254D12C480025B6
:10219000016841F0020101600068694600F0020038
:1021A00005904FF4406000901220019001200290B1
:1021B00003200390042004902248FFF719FC2048D4
:1021C0001030016841F48001016000681F4E00F486
:1021D000800005901C4830604FF06067C6E90175CB
:1021E0004FF48068C6E9035875614FF44039B56112
:1021F000C6E9075930467562FFF79CFA08B1FEF749
:10220000F1FDA663B463114E0F4860367830E6E8FE
:1022100002074020A6E821010C4846F81459603016
:10222000B561C6E907597562FFF784FA08B1FEF790
:10223000D9FD6663B46307B0BDE8F0830058004081
:102240003038024000040240406002408C290020E7
:102250000248816802781144816070477400002050
:102260000B4810B5016841F400710160016841F448
:1022700080610160016841F480710160032000F019
:102280009FF8002000F006F800F050F8002010BD84
:10229000003C024030B505461F4887B00024016865
:1022A00041F480710160006806A900F48070059017
:1022B000684600F039F90398A8B100F055F94000DC
:1022C0001649174AB0FBF1F11648491E026040F268
:1022D000E732C0E90324C0E90114846100F0B0FCD6
:1022E000040003D015E000F03FF9E9E70D4800F0E5
:1022F0004BFD04000DD12D2000F034F8102D07D235
:10230000002229462D2000F03BF80748056000E038
:10231000012407B0204630BD4038024040420F0043
:10232000002000400C370020780000200C4882B0CC
:10233000016841F480410160006800F48040009031
:102340000748001F016841F08051016000680022C9
:1023500000F0805000900F21901E02B000F010B8E5
:1023600044380240002809DB00F01F02012191409F
:102370004009800000F1E020C0F800117047000023
:10238000F0B40E4B1B68C3F30223C3F10704042C03
:1023900000D904241D1D072D01D2002300E0DB1EFF
:1023A000012606FA04F56D1E0D409D409E40761EE6
:1023B000164045EA0601F0BC05F0FFBA0CED00E05E
:1023C000064A00F0070110684FF6FF03184040EA84
:1023D0000120034908431060704700000CED00E045
:1023E0000000FA05704700002DE9F0470D46040093
:1023F00065D0DFF81491D9F80000EFB200F00700C3
:10240000A84207D289F80070D9F8000000F0070050
:10241000A84254D120683D4E810712D5400703D50C
:10242000306840F4E05030602078000703D5306811
:1024300040F4604030603068A16820F0F00008434C
:1024400030602078C0072DD03049606808390128F5
:1024500012D0022813D0032811D009688907002957
:102460002DDA316821F0030101433160FFF7B2FB3F
:10247000804641F2883A0EE009688903EFE709686F
:102480008901ECE7FFF7A6FBA0EB0801514502D953
:102490000320BDE8F0873068616800F00C00B0EB05
:1024A000810FEFD1D9F80010484601F00701A94289
:1024B00007D90770006800F00700A84201D001208A
:1024C000E7E72078400705D53068E16820F4E05060
:1024D000084330602078000706D53068216920F471
:1024E000604040EAC100306000F05EF83168084AA0
:1024F000C1F30311515CC8400649086006480068F2
:10250000FFF7C8FE0020C4E7003C02400838024044
:1025100040C9000870000020780000200149012017
:10252000C8647047000047420F2202600C4A1368DB
:1025300003F003034360136803F0F0038360136840
:1025400003F4E053C36012684FF4E05303EAD2028D
:1025500002610448006800F007000860704700004E
:1025600008380240003C02400448054900680968F8
:10257000044AC1F38221515CC840704770000020BA
:102580000838024050C90008044805490068096835
:10259000044AC1F34231515CC840704770000020CA
:1025A0000838024050C90008154810B5006810F0FE
:1025B0000C01144813D0431004290FD008290ED160
:1025C0000F4C241F216801F03F022168490207D502
:1025D0002068C0F38810A0FB030106E0184610BD78
:1025E0002168C1F38811A1FB00010023FDF709FF59
:1025F0002168C1F30141491C4900B0FBF1F010BD55
:10260000083802400024F400054810B500680006B0
:1026100005D5FFF7E7FE02498020891C087010BD30
:102620000C3802402DE9F84F040075D02078DFF80F
:1026300038A3C007AAF1040548D00AF104000168D4
:10264000C1F38101012908D00068C0F3810002288C
:102650000AD1DAF80000400206D52868800335D593
:1026600060680028E1D031E06068B0F5803F10D0AC
:10267000B0F5A02F286810D020F48030286028689A
:1026800020F4802028606068A0B1FFF7A3FA064616
:102690000CE0286840F48030F4E740F480202860A3
:1026A000F7E7FFF797FA801B642871D82868800342
:1026B000F7D50BE0FFF78EFA064604E0FFF78AFA3B
:1026C000801B6428F1D828688003F7D42078DFF8CD
:1026D0009C9280074FF0000B3DD5A348001D016878
:1026E00011F00C0F08D00068C0F3810002280AD155
:1026F000DAF80000400206D42868800715D5E068A3
:10270000012809D111E0E068B8B10120C9F8000042
:10271000FFF760FA064605E022E1FFF75BFA801B4F
:102720000228C2D828688007F7D52868216920F0D8
:10273000F80040EAC10028600DE0C9F800B0FFF7DA
:1027400049FA064604E0FFF745FA801B02281FD825
:1027500028688007F7D42078000722D5824F844864
:102760006169703771B101210160FFF733FA0646E4
:1027700004E0FFF72FFA801B022809D83868800789
:10278000F7D50EE0C0F800B0FFF724FA064605E0E2
:1027900082E0FFF71FFA801B02287DD83868800787
:1027A000F7D42078400765D56F484FF000083C30DB
:1027B0000068C0000BD46C483C30016841F0805187
:1027C000016000684FF0010800F080500090694FF0
:1027D0003868C0050FD4386840F480703860FFF75F
:1027E000F9F9064604E0FFF7F5F9801B022853D8F3
:1027F0003868C005F7D55C4FA0686C3701280FD04A
:102800000528386810D020F001003860386820F0C2
:1028100004003860A068B0B1FFF7DCF906460EE0AE
:10282000386840F00100F4E740F004003860F7E752
:10283000FFF7D0F9811B41F28830814263D83868B4
:102840008007F5D50DE0FFF7C5F9064606E0FFF76E
:10285000C1F9811B41F28830814254D83868800721
:10286000F5D4B8F1000F05D03F483C30016821F0A5
:1028700080510160A069B8B33B49091D0968C1F3E3
:102880008101022946D00228584606D0C9F86000C6
:10289000FFF7A0F9044639E035E04F46C9F860007B
:1028A000FFF798F9064604E0FFF794F9801B022829
:1028B00029D828688001F7D4D4E907010843A16A20
:1028C0002D4A490802EB0141626A41EA821108433C
:1028D00094F82C1040EA0161CAF800100120386613
:1028E000FFF778F9044605E03CE0FFF773F9001BB9
:1028F000022808D828688001F7D533E0FFF76AF985
:10290000001B022802D90320BDE8F88F2868800147
:10291000F4D427E00128F7D0DAF80000E26900F4E7
:10292000800191421CD1226A00F03F01914217D1EF
:1029300047F6C071626A0140B1EB821F10D1A26AF2
:102940004FF0FF3300F4403103EB5202B1EB024F82
:1029500006D194F82C1000F07060B0EB016F01D03C
:102960000120D1E70020CFE70438024000004742B1
:10297000800E4742007000400000FFFF7047704724
:1029800070B5040009D0606A002540B12561656119
:10299000A56294F8510040B120E0012070BD60684C
:1029A000B0F5827FF4D0E561F2E784F850502D480D
:1029B000A0652D48E0652D4820662D4860662D48AD
:1029C000A0662D48E0662D4820672D486067A06FFF
:1029D00008B92C48A067014620468847022084F8A1
:1029E00051002068016821F040010160A088218920
:1029F00000F4827001F404410843A18901F40061EC
:102A00000843217C01F002010843217D01F001010E
:102A10000843218B01F400710843217F01F0380144
:102A2000084394F8201001F080010843218D01F43F
:102A30000051084321680860A069042101EA1040A0
:102A400094F8241001F010010843216848602068C0
:102A5000C16921F40061C1616565012084F85100FC
:102A6000002070BD4D2B0008492B0008512B000899
:102A70004F2B00084B2B0008532B00087F29000820
:102A80007D290008892A00082DE9F04186B0064614
:102A900014216846FDF799FE25493068884243D1E4
:102AA00024480025016841F4804101600068214903
:102AB00000F4804010390590086840F00400086078
:102AC000086800F004000590086840F00200086003
:102AD0000868022400F002000590082003274FF048
:102AE00005088DE8B10169461348FEF781FF200310
:102AF0008DE8B10169461148FEF77AFF114C104884
:102B0000C4E900054020C4E902050001C4E9040548
:102B1000A561E561256220466562FEF70BFE08B1FE
:102B2000FEF760F9B464A66306B0BDE8F08100006A
:102B300000380040403802400008024000040240D3
:102B400070600240CC2A0020704770477047704781
:102B50007047704770477047704710B590F83C2039
:102B6000012A22D0012280F83C20CA688C6822F415
:102B7000407222434C6822F4806222430C6822F4A3
:102B8000006222430C6922F4805222434C6922F4F1
:102B900000522243C969002322F480420A4301689B
:102BA0004A6480F83C30002010BD022010BD0000B7
:102BB00070B590F83C20012A32D0012580F83C50B5
:102BC000022280F83D2002685368946823F0700662
:102BD0000B6833435360134B02689A4214D0B2F12E
:102BE000804F11D0104B9A420ED0104B9A420BD00E
:102BF0000F4B9A4208D00F4B9A4205D00E4B9A4287
:102C000002D00E4B9A4204D1496824F08003194344
:102C1000916080F83D50002180F83C10084670BD5E
:102C2000022070BD00000140000400400008004088
:102C3000000C00400004014000400140001800402A
:102C400010B5040003D094F83D0010B10EE001204F
:102C500010BD002084F83C00204602F04FFDA06C1F
:102C600008B91148A064014620468847022084F82C
:102C70003D00211D206802F0FBFB012084F8460086
:102C800084F83E0084F83F0084F8400084F8410056
:102C900084F8420084F8430084F8440084F8450036
:102CA00084F83D00002010BDAD2C000808B5006878
:102CB0002D4A2E49904207D1086840F00100086073
:102CC000086800F001000BE0284A294B121F9842C7
:102CD00008D1106840F020001060106800F020005B
:102CE000009008BD234B984207D1086840F480301B
:102CF0000860086800F48030F2E71F4B984207D163
:102D0000086840F400300860086800F40030E7E725
:102D10001A4B984207D1086840F480200860086880
:102D200000F48020DCE71649884211D1106840F099
:102D3000400010601068002200F040000090052163
:102D40002B20FFF71DFBBDE808402B20FFF70ABB37
:102D50000C498842C5D1106840F0800010601068AE
:102D600000F08000BCE70000000001404438024051
:102D70000014004000400140004401400048014070
:102D800000180040001C004090F83D10012901D0BF
:102D900001207047022180F83D100168CA6842F0A6
:102DA0000102CA6000681149884214D0B0F1804F16
:102DB00011D00F4988420ED00E4988420BD00E49DF
:102DC000884208D00D49884205D00D49884202D07A
:102DD0000C49884204D1816801F00701062903D01B
:102DE000016841F0010101600020704700000140CE
:102DF0000004004000080040000C004000040140B6
:102E0000004001400018004070B5044690F83C00B6
:102E10000025012817D0012684F83C60022084F8A0
:102E20003D002068826822F0770222F47F428260AF
:102E30000868502838D00DDC20284FD005DC90B32E
:102E4000102811D14AE0022070BD302846D0402819
:102E50000AD13BE060282FD070280DD0B0F5805FFC
:102E600003D0B0F5005F12D0012584F83D6000204A
:102E700084F83C00284670BDCB68D1E90121206868
:102E800002F067FB2068816841F0770109E0CB68B8
:102E9000D1E90121206802F05CFB2068816841F4DF
:102EA00080418160E1E719E0CA684968206802F062
:102EB0005BFC5021206806E0CA684968206802F07F
:102EC00064FC6021206802F04EFBCEE7CA684968C6
:102ED000206802F049FC40212068F4E7226801469E
:102EE0001046F0E72DE9F0410D46040003D094F8B8
:102EF0003D0018B10FE00120BDE8F081002084F80A
:102F00003C00204602F0FAFB206F08B922482067F7
:102F1000014620468847022084F83D0020688168E9
:102F200044F2070291438160211D206802F0A0FA5B
:102F3000206881688269066A2B68AF690B4340F29A
:102F400003318A4342EA0722A968EF6911434FF629
:102F5000FC429143EA6841EA07210A4329692F6A42
:102F6000090141EA073717436A686D6926F0AA012B
:102F700041EA05110A4383602068876154F8460BD3
:102F80000262012004F81F09E0752076E0762077C0
:102F9000A0750020B0E700009D2F0008F0B587B0B5
:102FA000044614216846FDF710FC55492068544A30
:102FB0001039022501240326524B534F4FF0000CC9
:102FC000B0F1804F26D0DFF844E1704556D110684B
:102FD00040F002001060106800F0020005900868E0
:102FE00040F0020008600868694600F002000590A1
:102FF00030208DE82110CDE903653846FEF7F8FC56
:10300000002205211D20FFF7BBF91D20FFF7AAF9BB
:1030100007B0F0BD106840F001001060106800F0CB
:1030200001000590086840F001000860086800F0A1
:1030300001000590086840F00200086008686946D1
:1030400000F0020005904FF400400090CDE90154DB
:10305000CDE903641846FEF7CBFC08200090CDE9CB
:103060000154CDE9036469463846FEF7C1FC0022ED
:1030700005211C20FFF784F91C20C7E7DFF890E04A
:1030800070451FD1106840F004001060106800F017
:1030900004000590086840F002000860086869466E
:1030A00000F002000590C0208DE82110CDE903C595
:1030B0003846FEF79DFC002205211E20FFF760F92F
:1030C0001E20A3E7134FB842A2D1106840F00800B9
:1030D0001060106800F008000590086840F00100DA
:1030E00008600868CDE9006500F00100CDE90450F2
:1030F000CDE9024669461846FEF77AFC88E70000EB
:103100004038024000000240000402400004004039
:1031100000080040000C004070B590F83E50044696
:1031200090F83F3090F8422090F84300022621B1F9
:1031300004290BD0012D16D10FE0012D13D1012A46
:1031400011D184F83E6084F8426016E0012B0AD168
:10315000012808D184F83F600DE0012B03D1012A3A
:1031600001D1012801D0012070BD84F83E6084F8AF
:103170003F6084F8426084F8436091B1042904D030
:1031800001220021206802F0D7F9012204212068E1
:1031900002F0D2F92068016841F0010101600020CD
:1031A00070BD012200212068F2E770477047704728
:1031B00070B50446006801694FF00005C9438907EE
:1031C00017D4C168C943890713D4E91E01610120DE
:1031D000207720688069800702D0D4F8901005E03D
:1031E000D4F8981020468847D4F89C102046884789
:1031F000257720680169C943490719D4C168C943C3
:10320000490715D46FF0040101610220207720687E
:10321000806910F4407F02D0D4F8901005E0D4F813
:10322000981020468847D4F89C1020468847257778
:1032300020680169C943090718D4C168C94309074F
:1032400014D46FF008010161042020772068C06960
:10325000800702D0D4F8901005E0D4F898102046EA
:103260008847D4F89C102046884725772068016954
:10327000C943C90619D4C168C943C90615D46FF03A
:1032800010010161082020772068C06910F4407F98
:1032900002D0D4F8901005E0D4F898102046884762
:1032A000D4F89C1020468847257720680169C943D7
:1032B000C90709D1C168C943C90705D1891E016180
:1032C000D4F880102046884720680169C943090660
:1032D0000AD4C168C943090606D46FF080010161B0
:1032E000D4F8B0102046884720680169C9434906D0
:1032F0000AD4C168C943490606D46FF04001016190
:10330000D4F888102046884720680169C943890697
:103310000CD4C168C943890608D46FF0200101614B
:103320002046D4F8A810BDE87040084770BD0000E2
:1033300070B586B0044614216846FDF746FA294D5B
:1033400021680023284A02242848A94211D1116883
:1033500041F0100111601168029301F01001059114
:103360004FF4D441CDE900140121CDE90341694670
:103370000DE01F4E0325B1420DD1116841F010013F
:103380001160116801F010010591602110E0FEF755
:103390002FFB06B070BD174E1748B1420FD1116810
:1033A00041F002011160116801F0020105918115DF
:1033B0000091CDE90143CDE903356946E7E70F4EBA
:1033C000B142E6D1116841F002011160116801F0CB
:1033D000020105917115CDE9001402AE694686E837
:1033E0003800D4E7000001403038024000100240AD
:1033F00000400140004401400004024000480140F8
:1034000070B5044690F83C00002501280FD001203B
:1034100084F83C006AB1042A0FD0082A11D00C2A83
:1034200013D00125002084F83C00284670BD0220FE
:1034300070BD206802F0A0F8F4E7206802F0CCF834
:10344000F0E7206802F0FEF8ECE7206802F02EF9C1
:10345000E8E7704710B5040003D094F83D0010B1C0
:103460000EE0012010BD002084F83C00204602F050
:1034700045F9A06D08B91148A06501462046884766
:10348000022084F83D00211D206801F0F1FF012099
:1034900084F8460084F83E0084F83F0084F8400039
:1034A00084F8410084F8420084F8430084F8440022
:1034B00084F8450084F83D00002010BDC1340008A8
:1034C000704770B5044690F83C0000260D46012870
:1034D0000FD0012084F83C006AB1042A1DD0082ACC
:1034E0002FD00C2A3FD00126002084F83C00304623
:1034F00070BD022070BD206802F03EF8206881692E
:1035000041F0080181612068816921F00401816135
:10351000206881692A69114311E0206802F05CF893
:103520002068816941F4006181612068816921F42A
:1035300080618161206881692A6941EA0221816193
:10354000D2E7206802F07EF82068C16941F00801E6
:10355000C1612068C16921F00401C1612068C169AD
:103560002A69114311E0206802F0A0F82068C169BF
:1035700041F40061C1612068C16921F48061C161C9
:103580002068C1692A6941EA0221C161ACE70000F3
:1035900010B5040003D094F83D0010B10EE00120F6
:1035A00010BD002084F83C00204602F0A7F8206EF1
:1035B00008B911482066014620468847022084F851
:1035C0003D00211D206801F053FF012084F84600D2
:1035D00084F83E0084F83F0084F8400084F84100FD
:1035E00084F8420084F8430084F8440084F84500DD
:1035F00084F83D00002010BDFD350008704770477D
:103600007047000010B5044649B104290AD00829C2
:103610000BD094F8410001280AD0012010BD94F885
:103620003E00F8E794F83F00F5E794F84000F2E731
:103630000220B1B3042938D0082939D084F84100D8
:103640000122206801F078FF1B4920681B4A88424C
:1036500001D0904203D1436C43F40043436420689B
:10366000884213D0B0F1804F10D0154988420DD058
:10367000144988420AD01449884207D0904205D0A4
:103680001249884202D01249884204D1816801F06F
:103690000701062903D0016841F001010160002003
:1036A00010BDFFE784F83E00CAE784F83F00C7E793
:1036B00084F84000C4E7000000000140000401401D
:1036C0000004004000080040000C004000400140A1
:1036D0000018004030B504460D460068002201F095
:1036E0002BFF194941F2111220689310884202D031
:1036F0001649884209D1016A114206D1016A19426C
:1037000003D1416C21F4004141642068016A1142F7
:1037100006D1016A194203D1016821F0010101605B
:1037200001203DB1042D08D0082D09D084F84100B6
:10373000002030BD84F83E00FAE784F83F00F7E748
:1037400084F84000F4E7000000000140000401405C
:1037500000680349884201D1FEF77ABD7047000036
:1037600000200040704770477047704770477047AF
:1037700070477047F8B5016804460868CA684B6925
:1037800010F00F0F4FF0000556D003F0010602F4C1
:103790009077374361D0C10705D0D10503D5216C9F
:1037A00041F001012164410705D5D90703D0216CFF
:1037B00041F002012164810705D5D90703D0216CAE
:1037C00041F004012164010707D502F020013143D3
:1037D00003D0216C41F008012164216C00293BD009
:1037E000800604D5900602D5204602F047F82068EE
:1037F0004069216CC0F38010090700D440B3204613
:1038000001F0EEFF2068406940061ED520681430A4
:1038100050E8001F21F0400140E80012002AF5D1D5
:10382000A06B90B16C490165A06BFDF7A0FE00286C
:1038300012D0A06B016DCBE083060ED593060CD59C
:103840002046BDE8F84002F019B82046616DBFE09F
:10385000616D204688472564F8BD266B2023012E24
:103860007BD1C60679D5D60677D50868486800901A
:103870004869400640D5A16B086840680004000C08
:10388000EAD0A28D8242E7D9E085C869B0F5807F91
:103890002DD020680C3050E8001F21F4807140E8E2
:1038A0000012002AF5D12068143050E8001F21F0E2
:1038B000010140E80012002AF5D12068143050E8D8
:1038C000001F21F0400140E80012002AF5D184F8E1
:1038D0003E30256320680C3050E8001F21F01001B5
:1038E00040E80012002AF5D1A06BFDF7F7FDA08D8E
:1038F000E18D401A81B229E0A08DE18D401A81B29C
:10390000E08D0028A8D00029A6D020680C3050E80F
:10391000002F22F4907240E80026002EF5D1206896
:10392000143050E8002F22F0010240E80026002E5B
:10393000F5D184F83E30256320680C3050E8002F24
:1039400022F0100240E80023002BF5D1A26E01B056
:103950002046BDE8F0401047FFE705062CD51506C8
:103960002AD594F83D0021287FF476AFA068B0F501
:10397000805F01D12069B0B1206A411C21622168B9
:1039800000784860E08C401E0004000CE084EBD11D
:103990002068C16821F08001C1602068C16841F0E1
:1039A0004001C160F8BD206A0088C0F3080048608B
:1039B000206A801C2062E5E74006F3D55006F1D569
:1039C000CA68204622F04002CA6084F83D30A16CEB
:1039D00001B0BDE8F0400847D557000870B50400B5
:1039E00004D094F83D00002510B10DE0012070BD19
:1039F00084F83C50204601F01BFFE06E08B91348E4
:103A0000E066014620468847242084F83D0020686F
:103A1000C16821F40051C160204601F08FFF206889
:103A2000016921F4904101612068416921F02A0176
:103A300041612068C16841F40051C16025642020C3
:103A400084F83D0084F83E00002070BD513A000823
:103A50002DE9F04F87B0044614216846FCF7B5FE07
:103A6000A0489F4F0221D4F800C09E4B103803227B
:103A7000DFF874E200258E064FF0080B4FF48069E2
:103A8000BC4545D11F6847F480171F601B6803F4CD
:103A900080130593036843F004030360036803F095
:103AA00004030593036843F00803036000688A4633
:103AB00000F008000590C802CDE9000ACDE90252E5
:103AC00090465F466946CDF810B07046FDF790FF0E
:103AD0000420CDE9000ACDE90258694604978348DD
:103AE000FDF786FF834F82483860C7E90165C7E963
:103AF000035980157D61C7E906500002C7E9080532
:103B00003846FDF717FE08B1FDF76CF9A76371E0C1
:103B1000DFF8E481DFF8CCA107270AF1040AC445E5
:103B20001BD1DAF8004044F01004CAF80040DAF87B
:103B3000003003F010030593036843F001030360B2
:103B4000006800F0010005904FF4C0608DE823008C
:103B5000CDE9032769466948BEE0DFF8A481C44582
:103B60004CD1D3F800C04CF4003CC3F800C01B6833
:103B700003F400330593036843F00803036000680F
:103B800000F00800059060208DE82300CDE90327B0
:103B900069465648FDF72CFF564F55486037783038
:103BA0003860C7E90165C7E90359B0467D614FF444
:103BB0008036BD61C7E9075638467D62FDF7BAFD1C
:103BC00008B1FDF70FF9A763BC634A4F4848C037F7
:103BD0009030E7E802084020A7E82102454847F86E
:103BE0001459C030BD61C7E907567D6251E0FDF749
:103BF000F9F852E0BC6307B0BDE8F08FDFF804814C
:103C0000C4454CD1D3F800C04CF4802CC3F800C09C
:103C10001B6803F480230593036843F008030360E3
:103C2000006800F0080005904FF440708DE8230014
:103C3000CDE9032769462D48FDF7DAFE2C49324FBE
:103C4000183138463960C0E90165C0E90359B0460A
:103C50004E464FF40039C7F8209089157D61C7E9B9
:103C600006517D62FDF766FD08B1FDF7BBF8A7635D
:103C7000BC63254F1E4860374830E7E80208402003
:103C800061C7214847F814596030BD61C7E9075939
:103C90007D62FDF74FFD0028A9D16763AAE71B4BA2
:103CA0009C45A8D1DAF8004044F02004CAF800404E
:103CB000DAF8003003F020030593036843F00403AF
:103CC0000360006800F004000590C0208DE8230028
:103CD000CDE9032B69467046FDF78AFE8BE70000AD
:103CE000005000404038024000080240000C0240F2
:103CF000106002402C3500200010014000000240FE
:103D000000440040004800404C36002000140140B0
:103D1000704770472DE9F843044690F83D001F4670
:103D200015460E4620284BD1C6B1BDB194F83C00D3
:103D3000012845D0012084F83C004FF00008C4F869
:103D40004080212084F83D00FDF744FFA584814692
:103D5000E584A068B0F5805F03D004E00120BDE8F1
:103D6000F883206920B13546002684F83C800EE0B7
:103D70000025FAE78021204601F066FEA0B9ADB12A
:103D800015F8010B21684860E08C401EE084E08C4F
:103D90004B464FF0000200970028EBD14FF0400156
:103DA000204601F051FE30B10320D8E736F8020B6F
:103DB000C0F30800E6E7202084F83D000020CEE7AD
:103DC0000220CCE7704770472DE9F04705460068B0
:103DD0000F4600EB4114D4F808054FF006024307E4
:103DE00001EB410000EBC7004FF004084FF0050A5B
:103DF00005EB800604D5C4F8088586F8612033E019
:103E0000D4F80805C00507D54FF48070C4F808053C
:103E1000072086F8610027E0D4F80805800603D55E
:103E20002020C4F8080522E0D4F8080501074FF067
:103E3000080004D5C4F8080586F861A013E0D4F89A
:103E40000815490506D54FF48061C4F8081586F8B1
:103E5000610008E0D4F80805000608D58020C4F801
:103E6000080586F861203946286803F034FAD4F84A
:103E70000805800506D53946286803F02CFA4FF46A
:103E8000007098E0D4F808054FF00001C0074FF02B
:103E900010094FF001023BD0286930B1B06CD4F862
:103EA0001035C3F31203C01A306586F86120F1653E
:103EB000C4F8082596F83F0030B1022804D0032842
:103EC00009D0012807D012E03946286803F003FA28
:103ED000C4F808950BE0D4F8000540F00050C4F891
:103EE000000586F8602039462846FDF7E5FE28697A
:103EF000012806D1B6F84010B06CB0FBF1F0C00755
:103F000004D016F8540F80F001003070BDE8F0873F
:103F1000D4F80805800735D596F8610002230128FA
:103F20000AD005280BD006280CD008280AD0032870
:103F30000FD0072818D01CE086F8602019E086F81A
:103F400060A016E0F06D401CF065022801D9F16513
:103F50000DE086F86030D4F8000520F0804040F095
:103F60000040C4F8000504E0F06D401CF06586F8E0
:103F70006080C4F8083596F8602039462846FDF779
:103F80009BFEC3E7D4F80805C006BFD596F83F00EE
:103F9000032803D020B1022802D00BE0F16505E030
:103FA000F165286930B9032086F861003946286830
:103FB00003F091F94846C4F80805A7E72DE9F04752
:103FC000026802EB4114D4F8082501EB41035507C0
:103FD00003EBC1034FF004024FF0060A00EB83032A
:103FE00004D5C4F8082583F861A051E0D4F8085539
:103FF0004FF00006AD064FF002070BD52022C4F8A3
:10400000082593F83D20012A33D183F83D6083F8D9
:1040100060703DE0D4F80855AD0504D54FF400724A
:10402000C4F8082534E0D4F808554FF0010C5FEAD5
:10403000C5784FF040050DD0DE65D4F8082552064E
:1040400003D583F83DC0C4F80855C4F808C583F803
:1040500061C01DE0D4F808855FEA48680BD583F895
:10406000612083F83DC0DE65006803F034F9C4F8D0
:104070000855BDE8F087D4F808554FF008095FEA05
:1040800005784FF0050508D5C4F8089583F8615008
:104090000068BDE8F04703F01EB9D4F808855FEA70
:1040A000C86810D50322DE6583F8612093F83D20AF
:1040B00022B993F83C200AB983F83DC0006803F0A8
:1040C0000AF910201AE0D4F808855FEA086818D5C4
:1040D000056955B1DD6D6D1CDD65022D0BD9DE6501
:1040E00083F86020FDF7E8FD07E083F861A0006831
:1040F00003F0F1F801E083F860708020C4F808054F
:10410000B7E7D4F808855FEA485807D583F8619087
:10411000006803F0E0F84FF48060EFE7D4F808851A
:104120005FEA8878A5D593F86180B8F1010F0FD0C8
:10413000B8F1030F30D0B8F1040F2DD0B8F1050F4E
:104140002DD0B8F1060F2DD0B8F1080F2AD03CE0E1
:1041500083F860C093F83F20022A01D0032A34D1AB
:1041600002692AB993F8552082F0010283F855209C
:104170000269012A29D1DA6C3AB3B3F840502A44D3
:10418000521EB2FBF5F2D2071FD093F8552082F0F1
:10419000010283F8552018E083F8607015E083F879
:1041A000605012E0DD6D6D1CDD65022D03D9DE650A
:1041B00083F8602009E083F86070D4F8002522F0CD
:1041C000804242F00042C4F80025C4F8087593F814
:1041D0006020FDF771FD4CE77CB504680546D4F816
:1041E00040040190D4F8400420F02E000090019883
:1041F000800709D50198C00702D02846FDF7F0FCDA
:10420000009840F0020000900198000724D5009823
:1042100040F008000090019840071AD5A8690228CC
:1042200003D0E86801280CD00FE00198C0F34140AA
:104230000228286803D0012103F03CFA05E002219E
:10424000FAE74EF66020C4F804042846FDF79AFE0B
:1042500002E02846FDF792FE01988006009802D5FC
:1042600040F020000090C4F840047CBD2DE9F041EE
:10427000024600680746016AC1F3434301F00F0696
:10428000C1F30A15022B31D1002D2FD006EB4601C8
:1042900001EBC60102EB8104616C002926D0226D7E
:1042A000E36C2A449A4223D82A4603F022FA606C2F
:1042B00028446064206D2844206507EB4610D0F840
:1042C0001015B4F84020C1F3C941AA420ED100290B
:1042D0000CD0D0F8001521F0804141F00041C0F829
:1042E000001514F8540F80F001002070BDE8F08133
:1042F000042084F86000F9E7FEE770477FB50021ED
:104300001B48009101910291184A03910260012516
:104310004FF440320561C0E90121017680F8201098
:10432000144AC0E90A210224C461C16080F8301037
:104330004161FCF70EFF08B1FCF754FD1120CDE9F7
:1043400000050720029069460948FCF759FE08B1AC
:10435000FCF748FD0820CDE9000469460448FCF755
:104360004FFE002801D0FCF73DFD7FBD002001403D
:10437000902800200100000F074910B5054808608B
:104380000846FDF785F8002803D0BDE81040FCF78B
:1043900029BD10BD0030024064000020154808B55A
:1043A000016841F400110160016801F400110091FD
:1043B000016841F4800101600068002200F480007F
:1043C000009005210F20FDF7DBFF0F20FDF7CAFF4E
:1043D000002205211020FDF7D3FF1020FDF7C2FFBA
:1043E000002205211120FDF7CBFFBDE80840112078
:1043F000FDF7B8BF3038024010B50121584A0846D1
:1044000005F0CEF9574C564A0121A06410320846F7
:1044100005F0C6F9524A0121E0642032084605F051
:10442000BFF94F4A012120653032084605F0B8F93E
:104430004B4A012160654032084605F0B1F9484A0F
:104440000121A0655032084605F0AAF9444BE06509
:10445000603B00220121444805F060FA404B206394
:10446000503B00220121414805F058FA3C4B606363
:10447000403B002201213E4805F050FA384BA06332
:10448000303B002201213B4805F048FA344BE06301
:10449000203B00220121384805F040FA304B2064CF
:1044A000103B00220121354805F038FA2C4A60649F
:1044B000C03A0421402005F095F8294A2062A83A24
:1044C0000421102005F08EF8254A6062903A0121FF
:1044D000202005F087F8224A0821A062783A084691
:1044E00005F080F8E062264A0021264805F0D2F95E
:1044F000234A206024320021234805F0CBF9204ACA
:10450000606048320021214805F0C4F91C4AA060CF
:104510006C3200211E4805F0BDF9194AE060903266
:1045200000211C4805F0B6F9154A2061B43200217B
:10453000194805F0AFF9124A6061D83200211748D6
:1045400005F0A8F9064AA061E43A0021144805F0F4
:10455000A1F9E0610248603004F0CDFF206610BD93
:10456000D0C800080000002011820008D18B00088C
:10457000518C0008B5830008557F0008FB420008F5
:10458000F0C60008415100085D880008CD99000878
:10459000C599000899A60008A9870008357E00087B
:1045A000258000082DE9F04F87B014216846FCF7FC
:1045B0000CF970480024016841F0100101600168A5
:1045C00001F010010591016841F0040101600168EA
:1045D00001F004010591016841F08001016001686A
:1045E00001F080010591016841F00101016001685D
:1045F00001F001010591016841F0020101600168CB
:1046000001F002010591016841F0080101600068B4
:104610004FF4C07600F0080005900022314656485D
:10462000FDF7D3FA0122970239465348FDF7CDFA38
:10463000DFF848A101224FF4B0415046FDF7C5FA1A
:104640000022F9005046FDF7C0FADFF834B14FF40C
:104650008078012241465846FDF7B7FA00227910CA
:104660005846FDF7B2FA00224FF4C8514548FDF70D
:10467000ACFA49F21C000325CDE900056946029415
:104680003D48FDF7B5F94EF63740CDE900056946DE
:1046900002945846FDF7ACF9FC20CDE900056946C7
:1046A00002943848FDF7A4F90620CDE90005DFF8AB
:1046B000D890694602944846FDF79AF9009601267B
:1046C00069462D480196CDE90245FDF791F900971D
:1046D000CDE90164694628480396FDF789F930035E
:1046E00000904FF48810CDE9010469464846FDF773
:1046F0007FF948F29340CDE900056946029450469F
:10470000FDF776F94FF4F040CDE9000669465046D2
:10471000CDE90245FDF76CF928020227CDE9000634
:10472000CDE9024769465846FDF762F9CDE90086B2
:1047300069461448CDE90245FDF75AF9E802CDE98A
:104740000006CDE9024769460E48FDF751F90820F9
:10475000CDE90004694650460294FDF749F9CDE9D8
:104760000054694604480294FDF742F907B0BDE8D9
:10477000F08F00003038024000100240000C024070
:104780000008024000000240000402400D4810B53D
:104790000B4901600C494FF48042C0E9011200212D
:1047A000C0E9031241618161C1610162FDF71EFC34
:1047B000002803D0BDE81040FCF714BB10BD00007A
:1047C0000058004038290020801A060010B5002249
:1047D00005210B20FDF7D4FD0B20FDF7C3FD0022C2
:1047E00005210C20FDF7CCFD0C20FDF7BBFD0022C0
:1047F00005210D20FDF7C4FD0D20FDF7B3FD0022BE
:1048000005210E20FDF7BCFD0E20FDF7ABFD0022BB
:1048100005212620FDF7B4FD2620FDF7A3FD00228B
:1048200005212720FDF7ACFD2720FDF79BFD002289
:1048300005212820FDF7A4FD2820FDF793FD002287
:1048400005212C20FDF79CFD2C20FDF78BFD00227F
:1048500005212F20FDF794FD2F20FDF783FD002279
:1048600005213220FDF78CFD3220FDF77BFD002273
:1048700005213520FDF784FD3520FDF773FD00226D
:1048800005213720FDF77CFD3720FDF76BFD002269
:1048900005214720FDF774FDBDE810404720FDF7D6
:1048A00061BD00000F4810B50D4901604FF48271E1
:1048B000416000218160C1604FF400720161C0E974
:1048C0000512C1610162416281620A21C162FEF783
:1048D00057F8002803D0BDE81040FCF783BA10BD9C
:1048E000003800404C2A002010B588B01C216846D2
:1048F000FBF76BFF164815490024016040F2473171
:10490000C0E9011440F2E731C0E90314802181615C
:10491000FEF796F908B1FCF765FA0D48FEF738FE88
:1049200008B1FCF75FFA6020CDE900040420049090
:104930000022694602940648FEF7C3FD08B1FCF761
:1049400051FA0348FEF7F4FC08B010BD00440140E2
:104950001830002010B588B01C216846FBF735FFE1
:10496000164815490024016040F24731C0E901149E
:1049700040F2E731C0E9031480218161FEF760F95C
:1049800008B1FCF72FFA0D48FEF702FE08B1FCF75C
:1049900029FA6020CDE90004042004900022694631
:1049A00002940648FEF78DFD08B1FCF71BFA034898
:1049B000FEF7BEFC08B010BD00480140CC3000201E
:1049C00030B58BB000240794089409941C216846E4
:1049D0000A94FBF7FAFE1C4D1A48286040F2473053
:1049E000C5E901046320C5E903048020A8612846C5
:1049F000FEF726F908B1FCF7F5F94FF4805007905F
:104A000007A91148FEF700FA08B1FCF7EBF90E48C8
:104A1000FEF720FD08B1FCF7E5F93220CDE90040B2
:104A200002940022694608480494FEF7E9FC08B1A4
:104A3000FCF7D8F92868816941F0080181610BB061
:104A400030BD0000001800408031002010B588B053
:104A50001C216846FBF7B9FE144813490024016085
:104A60005321C0E9011441F28731C0E903148021C8
:104A70008161FEF7E5F808B1FCF7B4F90B48FEF7E1
:104A8000E9FC08B1FCF7AEF900940194029400220D
:104A9000694606480494FEF7B3FC002801D0FCF7F1
:104AA000A1F908B010BD0000001C00403432002005
:104AB00010B596B000240F9410941194129413948E
:104AC0001C2168461494FBF780FE202107A8FBF701
:104AD0007CFE36483449016040F24731C0E9011498
:104AE00040F2E731C0E903148021C0E90541FEF737
:104AF000A7F808B1FCF776F94FF480500F900FA992
:104B00002A48FEF781F908B1FCF76CF92748FEF74F
:104B10003FFD08B1FCF766F9139413A923481494D8
:104B2000FEF746F808B1FCF75DF96020CDE9000416
:104B300004200294CDE903400594002269461B48F5
:104B40000694FEF7BEFC08B1FCF74CF90422694656
:104B50001648FEF7B6FC08B1FCF744F9082269468E
:104B60001248FEF7AEFC08B1FCF73CF90C2269468E
:104B70000E48FEF7A6FC08B1FCF734F90794089438
:104B800009944FF400500A94CDE90B4007A9074857
:104B90000E94FDF7E2FF08B1FCF724F90348FEF795
:104BA000C7FB16B010BD0000000001402C2B0020F8
:104BB00010B58CB024216846FBF707FE0024164888
:104BC00009944FF080410A94C0E900144EF6602128
:104BD000C0E902418021046181610320CDE9000424
:104BE0000120CDE902040494CDE90540079469460B
:104BF00009480894FEF776F908B1FCF7F3F8099430
:104C000009A905480A94FDF7D3FF002801D0FCF755
:104C1000E9F80CB010BD0000E02B002010B58CB0FE
:104C200024216846FBF7D1FD002416480994144955
:104C30000A94C0E900144EF66021C0E902418021C7
:104C4000046181610320CDE900040120CDE9020463
:104C50000494CDE90540079469460A480894FEF794
:104C600041F908B1FCF7BEF8099409A905480A946E
:104C7000FDF79EFF002801D0FCF7B4F80CB010BD82
:104C800000040040942C002010B58CB0242168460C
:104C9000FBF79BFD00241648099414490A94C0E9C7
:104CA00000144EF66021C0E9024180210461816157
:104CB0000320CDE900040120CDE902040494CDE9EC
:104CC0000540079469460A480894FEF70BF908B1B5
:104CD000FCF788F8099409A905480A94FDF768FFCC
:104CE000002801D0FCF77EF80CB010BD0008004091
:104CF000482D002010B58CB024216846FBF765FDD7
:104D000000241648099414490A94C0E900144EF688
:104D10006021C0E902418021046181610320CDE965
:104D200000040120CDE902040494CDE90540079474
:104D300069460A480894FEF7D5F808B1FCF752F81E
:104D4000099409A905480A94FDF732FF002801D00B
:104D5000FCF748F80CB010BD000C0040FC2D002002
:104D60001CB500240F4800940D49019401605321A3
:104D7000C0E9011442F20F71C16080218161FDF729
:104D80005FFF08B1FCF72EF80094694605480194CE
:104D9000FDF70EFF002801D0FCF724F81CBD000031
:104DA00000140040B02E002010B58CB000240794F1
:104DB000089409941C2168460A94FBF706FD1F48D5
:104DC0001D49016040F24731C0E9011440F2E7316A
:104DD000C0E9031480218161FDF732FF08B1FCF7BF
:104DE00001F84FF48050079007A91448FEF70CF81B
:104DF00008B1FBF7F7FF1148FEF7CAFB08B1FBF754
:104E0000F1FF6020CDE900040420049000226946EF
:104E100002940A48FEF755FB08B1FBF7E3FF0422B2
:104E200069460648FEF74DFB08B1FBF7DBFF034878
:104E3000FEF77EFA0CB010BD00400140642F002048
:104E40000E4810B50C4901600D4941604FF4805186
:104E500081604900C160C9100161042141610021E4
:104E60008161C161FEF7BAFD002803D0BDE81040A2
:104E7000FBF7B8BF10BD000000500040E832002032
:104E8000A08601000C4810B50A4901604FF4E131D9
:104E90004160002181600C22C160C0E9041281617F
:104EA000C161FEF79BFD002803D0BDE81040FBF771
:104EB00099BF10BD001001405C3300200C4810B5B4
:104EC0000A4901604FF416514160002181600C22B3
:104ED000C160C0E904128161C161FEF77FFD002855
:104EE00003D0BDE81040FBF77DBF10BD004400407B
:104EF000D03300200C4810B50A4901600B494160CD
:104F0000002181600C22C160C0E904128161C1618D
:104F1000FEF764FD002803D0BDE81040FBF762BF38
:104F200010BD0000004800404434002040420F0003
:104F30000C4810B50A4901604FF4E131416000218D
:104F400081600C22C160C0E904128161C161FEF779
:104F500045FD002803D0BDE81040FBF743BF10BD5E
:104F600000140140B834002010B500220B490C4851
:104F700001F0EEFC08B1FBF735FF0A49084802F0E2
:104F800071F808B1FBF72EFF054802F0AEF80028D3
:104F900003D0BDE81040FBF725BF10BD017100082C
:104FA000ECD300203C010020FEE7FDF72DFBFEE7DF
:104FB0000148FCF7D0BE0000E8D000202DE9F04108
:104FC00007460B4815460E46007808B902F050FC1B
:104FD000EFF31184202080F311882A4631463846A9
:104FE00000F008F8E1B281F31188BDE8F08100001B
:104FF000D0D8002070B50E46144900EB400001EBFC
:10500000C0051446E86A183520B101280FD00228DF
:1050100005D113E0284602F05FFCA04201D2002433
:1050200011E022463146284602F08EFC0BE028466D
:1050300002F052FCA042F4D20446F2E73146284680
:1050400002F055FC0446204670BD0000D0D8002078
:105050001C49884201D2002070471B49884201D276
:10506000012070471949884201D20220704718492F
:10507000884201D2032070471649884201D2042099
:1050800070471549884201D205207047134988426C
:1050900001D2062070471249884201D2072070478A
:1050A0001049884201D2082070470F49884201D236
:1050B000092070470D49884201D20A2070470B2011
:1050C00070470000004000080080000800C0000891
:1050D00000000108000002080000040800000608A3
:1050E0000000080800000A0800000C0800000E0874
:1050F0002DE9F0410122104D0E46074614022146CB
:105100002846FCF762FD002280212846FCF75DFD61
:105110004FF47A73324639460848FEF7FBFD002209
:1051200021462846FCF751FD2846BDE8F041012202
:105130008021FCF74ABD000000100240B834002076
:10514000FFF712FF012004F0C9F9FBE710B54FF09B
:10515000E020006906F0F6FB012803D0BDE810400E
:1051600005F00EBF10BD000030B593B03021684689
:10517000FBF72BFB14210CA8FBF727FB1E4800258F
:10518000016841F080510160006800F0805011908A
:105190001A48016841F4804101600068022400F46B
:1051A0008040119001200090000401908001CDE921
:1051B000064004200890A820CDE9090407200B90A0
:1051C0006846FDF72FFA08B172B6FEE70CA90F206A
:1051D00081E831004FF4A0500F904FF480501090B0
:1051E00005210CA8FDF700F908B172B6FEE7FDF73E
:1051F00095F913B030BD0000403802400070004007
:105200000548016841F47001016003494FF00060F6
:10521000803908607047000088ED00E00C4908689C
:105220000269D243D20712D1921E02610868006857
:10523000C10608484068D0E9021203D5491E42F170
:10524000FF3202E0491C42F10002C0E9021270473D
:10525000E02B0020E0DD00200C4908680269D24301
:10526000D20712D1921E026108680068C106084880
:10527000C068D0E9021203D5491E42F1FF3202E0B4
:10528000491C42F10002C0E902127047942C002030
:10529000E0DD00200C4908680269D243D20712D130
:1052A000921E026108680068C10608488068D0E95B
:1052B000021203D5491E42F1FF3202E0491C42F1BD
:1052C0000002C0E902127047482D0020E0DD0020F6
:1052D0000C4908680269D243D20712D1921E0261BA
:1052E00008680068C10608480068D0E9021203D5C2
:1052F000491E42F1FF3202E0491C42F10002C0E9BE
:1053000002127047FC2D0020E0DD002070B51F4820
:105310002DED028B00680169C943C90732D1891E8E
:1053200001611B480068426A1A4D9FED1B8A0023E9
:105330002868B0EE480A03F0EBF918480068426AA2
:105340000023B0EE480A686803F0E2F914480068E8
:10535000426A0023B0EE480AA86803F0D9F9114860
:105360000068426A0023B0EE480AE86803F0D0F90A
:105370000024B0EE480A55F8240003F04FF9641CED
:10538000042CF6DBBDEC028B70BD0000B02E0020BB
:10539000FC2D0020E0DD00200AD7233CE02B00207C
:1053A000482D0020942C002070B5104E32681069F2
:1053B0000F4DC043C0074FF4807406D1801E1061AA
:1053C000012221462846FCF700FC32681069C043E0
:1053D000800709D46FF00200106121462846BDE81D
:1053E00070400022FCF7F1BB70BD0000803100204E
:1053F000000002400148FDF7DBBE00000C37002032
:1054000070B5184D28680169174EC943174C8907B4
:105410000DD46FF002010161206856F82000416A46
:1054200000208847206803281AD0401C2060286884
:105430000169C943C90712D1891E0161206856F864
:105440002000416A01208847206856F8200005F0B6
:1054500063F82068296856F820000069486370BD29
:105460000020E3E734320020F0DD00206C00002053
:10547000F0B50268254D264E264FDFF89CC0274B1D
:105480004FF0804EA84209D0704507D0B04205D0F9
:10549000B84203D0604501D0984203D122F0700495
:1054A0004A682243A8421BD0704519D0B04217D099
:1054B000B84215D0604513D0984211D0184CA04284
:1054C0000ED0184CA0420BD0174CA04208D0174C5D
:1054D000A04205D0164CA04202D0164CA04203D1E7
:1054E00022F44074CA6822434C6922F080022243AD
:1054F00002608A68C2620A688262A84201D0984249
:1055000001D10969016301214161F0BD0000014041
:105510000004004000080040000C0040000401406E
:105520000040014000440140004801400018004094
:10553000001C00400020004010B501F01F010123B5
:10554000046A8B409C430462036A8A4013430362EB
:1055500010BD10B5846842EA032224F47F440A4354
:105560002243826010BD826822F070020A4342F03A
:105570000701816070470000F0B5026A22F0010265
:105580000262026A43688469114E24F073050C6854
:10559000104F2C4322F002058A682A43B04201D002
:1055A000B84205D122F00805CA682A4322F0040255
:1055B000B04201D0B84205D14D6923F440731D4378
:1055C0008B692B4343608461496841630262F0BD8B
:1055D0000000014000040140F0B5026A22F0100210
:1055E0000262026A436884690D6824F4E64444EA6E
:1055F00005248D6822F0200242EA05120F4D104E5C
:10560000A84201D0B04206D1CF6822F0800242EA1F
:10561000071222F04002A84201D0B04207D14D69E2
:1056200023F4406343EA85038D6943EA85034360BD
:105630008461496881630262F0BD0000000001409E
:1056400000040140F0B5026A22F480720262026A2C
:105650004368C46922F4007224F073050C68124E8A
:105660002C438D6842EA05220E4DA84201D0B0427B
:1056700006D1CF6822F4006242EA072222F4806257
:10568000A84201D0B04207D14D6923F4405343EA08
:1056900005138D6943EA05134360C4614968C1631A
:1056A0000262F0BD000001400004014030B5026A12
:1056B00022F480520262036A4268C4690D6824F4CD
:1056C000E64444EA05248D6823F4005343EA053395
:1056D000084DA84202D0084DA84204D14D6922F4D9
:1056E000804242EA85124260C461496801640362F3
:1056F00030BD000000000140000401400D4940F8A9
:10570000801F0D4941600D4981600D49C1600D49FF
:1057100001610D4941610D4981610D49C1610D4929
:1057200001620D4941620D4981620D49C1620D4915
:105730000163704751370008653700086737000874
:1057400069370008AD310008AF3100085334000854
:10575000FF35000801360008AB310008572B000860
:10576000592B0008552B000810B5046A036A23F072
:1057700001030362836923F0F00343EA021324F078
:105780000A020A438361026210BD10B5036A23F066
:10579000100303628469036A24F4704444EA023209
:1057A00023F0A00343EA01118261016210BD10B52C
:1057B00004F080FE002805D0D0E90012BDE81040BA
:1057C0001046084710BD00000148FDF7D3BF000098
:1057D000E8320020806B0021C185C184416D0847FB
:1057E00001680C3151E8002F22F4907241E8002347
:1057F000002BF5D10168143151E8002F22F001028D
:1058000041E80023002BF5D1016B012909D1016882
:105810000C3151E8002F22F0100241E80023002B48
:10582000F5D1202180F83E1000210163704700006F
:1058300009494164094981640949C164094901650B
:1058400009494165094981650949C16509490166F7
:105850000949816670470000C73D0008C53D000842
:10586000133D0008113D0008733700086D3700082C
:10587000713700086F3700086B37000808B590F8DB
:105880003E10222901D0022008BD81684FF48053C8
:10589000994201D1026922B1826A99421BD049B171
:1058A0000AE00268816A5268C2F308020A80816ACB
:1058B000891C08E0016971B10168496801F07F0144
:1058C0001170816A491C8162C18D491E0904090C4D
:1058D000C18503D019E001684968F1E70168CA6829
:1058E00022F02002CA600168CA6822F48072CA608D
:1058F00001684A6922F001024A61202180F83E10C5
:10590000016B012903D0016D8847002008BD0021EB
:10591000016301680C3151E8002F22F0100241E8C8
:105920000023002BF5D101680A68D20602D50A6867
:1059300049680091826E818D9047E6E770B5044614
:1059400000680169E26821F4405111430161A168D6
:105950002069E26901436069104301432068C2681D
:1059600049F20C639A430A43C26020684169A26904
:1059700021F440711143416131492068884202D0CD
:105980003049884202D1FCF7FFFD01E0FCF7ECFD55
:10599000E2690023192164253226B2F5004F6268BE
:1059A00028D0A0FB0101930F9200FAF72AFD0146CF
:1059B000B0FBF5F06FF01802504301EB800006EBEE
:1059C0000010B0FBF5F000F0F002B1FBF5F002EBD7
:1059D0000012B1FBF5F06FF01803584301EB8000A3
:1059E00006EB0010B0FBF5F000F00F00216810444A
:1059F000886070BDA0FB010192185B41FAF701FDC0
:105A00000146B0FBF5F00201B1FBF5F06FF01803B1
:105A1000584301EB800006EBC000B0FBF5F000F04E
:105A2000F80002EB4002B1FBF5F0584301EB8000B7
:105A300006EBC000B0FBF5F000F00700D6E7000071
:105A400000100140001401402DE9F0411E461746A8
:105A500088460446069D26E0681C24D025B1FCF744
:105A6000B9F8801BA8421ED920680C3050E8001FEE
:105A700021F4D07140E80012002AF5D120681430DA
:105A800050E8001F21F0010140E80012002AF5D182
:105A9000202084F83D0084F83E00002084F83C007B
:105AA0000320BDE8F0812068016838EA010004D0D5
:105AB0000020B842D0D00020F3E70120F9E7000031
:105AC0000148FDF757BE0000D03300200148FDF724
:105AD00051BE0000443400200148FDF74BBE0000D9
